:0400000009EF01F013
:100008005D82FACF18F0FBCF19F0E9CF1AF0EACFEA
:100018001BF0E1CF1CF0E2CF1DF0D9CF1EF0DACFF4
:100028001FF0F3CF20F0F4CF21F0F6CF22F0F7CF76
:1000380023F0F8CF24F0F5CF25F05DC026F05EC0A0
:1000480027F05FC028F060C029F0F0B6F0A0ABD070
:10005800F090620E5CEC0AF02B6E2BA011D043904E
:1000680043BC439C000E0001926F000E916F43A2A7
:1000780007D0480E5CEC0AF02A6E2AB043844392FB
:100088002BA68AD02D68000E2E6E010E2E6401D08C
:1000980010D02E50500D000EF324D96E020EF4200D
:1000A800DA6EDF50D8A403D02EC02DF002D02E2A4D
:1000B800ECD7020E2D606BD0040E036E730E71EC3C
:1000C8000AF02D50500D000EF324D96E020EF420C4
:1000D800DA6E030E046E000E036EDCEC09F0020FFC
:1000E800DF6E2D50500D000EF324D96E020EF42051
:1000F800DA6E4F0EDF6040D0438A010E2E6E1AD0A2
:100108002D50500D000E136E020E146EF350132670
:10011800F45014222E501324D96E000E1420DA6ED7
:10012800000E2E24036E046A030E0422DCEC09F090
:10013800DF6E2E2A2E50136E146A2D50500D000EAD
:10014800F324D96E020EF420DA6EDF50156E166AAB
:10015800020E1526000E16221350155C1650800A42
:10016800176E1450800A1758D8B0CAD7010E036EFC
:100178001B0E71EC0AF005D0010E036E1B0E71EC1C
:100188000AF0000E036E730E71EC0AF005D0010E32
:10019800036E1B0E71EC0AF02BA805D0800E036EBF
:1001A800590E71EC0AF09EB09DA007D09E904B2A84
:1001B8004B50D8A402D000019A2BACEC0AF029C00D
:1001C80060F028C05FF027C05EF026C05DF025C053
:1001D800F5FF24C0F8FF23C0F7FF22C0F6FF21C0B7
:1001E800F4FF20C0F3FF1FC0DAFF1EC0D9FF1DC0F7
:1001F800E2FF1CC0E1FF1BC0EAFF1AC0E9FF19C0FB
:0E020800FBFF18C0FAFF5D9211002CEF08F00A
:100F000000C0030000A005000060090000E0100020
:100F100000E01F0000E03D0000E0790000E0F1008B
:100F200000E0E10100E0C10300E0810700E0010F03
:100F300000E0011E00443D1B000DB4150001000837
:100F400000400000020010008001000A006400E878
:100F5000031027010010000001001030313233343B
:100F60003536373839414243444546003031323313
:100F7000343536373839616263646566005258200B
:100F80004D657373616765733A2025336400545867
:100F9000204D657373616765733A2025336400548F
:100FA000657374006F6B00004F504D5CD8A004D087
:100FB0004E504C5CD8B0120071B0FED74F504D5C13
:100FC000D8B01AD04D50010D820EF324D96E000E08
:100FD000F420DA6EDF50756E4D2A4F504D18D8A4AC
:100FE00012004E50D8A412007184010E0E6E2C0E09
:100FF0000D6EBFEC08F012004E504C5CD8B01200E1
:101000004C50010D7B0EF324D96E010EF420DA6EE4
:10101000DF50D8A40AD04C50010D7B0EF324D96EBA
:10102000010EF420DA6E200EDF6E4C50010D7B0EA7
:10103000F324D96E010EF420DA6EDF50756E4C2A5F
:101040004E504C18D8A412007184010E0E6E2C0E56
:101050000D6EBFEC08F01200880EF66E150EF76EDE
:10106000000EF86E01EE9CF010EE08F00900F5CFCE
:10107000EEFFE550E150FAE1940EF66E150EF76EB4
:10108000000EF86E0900F5CFFCF0900EF66E150E0E
:10109000F76E000EF86E0900F5CF5BF00900F5CF92
:1010A0005CF003EE00F08C0EEE6AE806FDE102EE65
:1010B00000F0A00EEE6AE806FDE101EE00F09C0EE5
:1010C000EE6AE806FDE100EE60F08A0EEE6AE806E0
:1010D000FDE100EE2FF02C0EEE6AE806FDE15D90DA
:1010E0005D92000EF86E000145EF0AF0000E00015F
:1010F000F86F000EF96F000EFA6F000EFB6FF6C06E
:10110000EAF0F7C0EBF0EC6BED6BA00EEE6F0F0E9C
:10111000EF6F000EF06F000EF16F85EC09F0EAC082
:10112000F8F0EBC0F9F0ECC0FAF0EDC0FBF0560EB1
:101130000001F827FF0EF923FF0EFA23FF0EFB2311
:10114000FBBF1200FB51FA11F9110FE1C40EF85D5B
:10115000D8A012000AD000F0D90E0001F827FF0E27
:10116000F923FF0EFA23FF0EFB23FBBF1200FB51F6
:10117000FA11F911F0E1F805D8A01200ECD7000E31
:101180000F6E000E106E000E116E000E126E0DC06E
:1011900001F00EC002F0036A046AA00E056E0F0E85
:1011A000066E000E076E000E086EB1EC09F001C06D
:1011B0000FF002C010F003C011F004C012F0560E80
:1011C0000F26FF0E1022FF0E1122FF0E122212BE5A
:1011D00012001250111010100EE1C40E0F5CD8A0B6
:1011E000120009D000F0D90E0F26FF0E1022FF0EBC
:1011F0001122FF0E122212BE1200125011101010F6
:10120000F1E10F04D8A01200EDD7780ED36EC09094
:101210009B8C000EF26E550EA76EAA0EA76E0E01E5
:10122000FF91040EE76F130EF66F050ED76F550E84
:10123000A76EAA0EA76EFF810F0148693F0E496F86
:10124000F19E92689368946895689668000E896E1E
:10125000000E8A6E000E8C6E000E8D6E938093844D
:101260009294929693968A86959E8C8E9382938A78
:10127000949E9398C00EC76E210EC66E95968C866E
:10128000F19A94948B84F28EF090F08649EC09F0F8
:101290001200530E9512A49E000E736EF00E746E23
:1012A000280E726E000E716EA38EF28EF28C010EFD
:1012B0000001F76F2C0EF66F76EC08F07C0E000143
:1012C000826F810E836F000E846F000EEA6F030E33
:1012D00085EC0AF0000E0001F76FC80EF66F76EC91
:1012E00008F07C0E0001826F510E836F080E846F30
:1012F000000EEA6F030E85EC0AF0000E0001F76F96
:10130000C80EF66F76EC08F01200000E0001F26FC6
:10131000000EF36F000EF46F000EF56FEAA108D017
:10132000EE51F227EF51F323F051F423F151F5235D
:10133000D890EE37EF37F037F137D890ED33EC3304
:10134000EB33EA33EA51EB11EC11ED11D8A4E6D7F7
:10135000F2C0EAF0F3C0EBF0F4C0ECF0F5C0EDF051
:101360001200000E096E000E0A6E000E0B6E000ECB
:101370000C6E01A008D00550092606500A2207501D
:101380000B2208500C22D890053606360736083650
:10139000D89004320332023201320150021003109D
:1013A0000410D8A4E6D709C001F00AC002F00BC0AF
:1013B00003F00CC004F01200000EF0B6010E086E2F
:1013C000F0968A9603C005F004C006F0D890063265
:1013D0000532D89006320532D890063205320550D3
:1013E0007F0B800993EC0AF00338E846E00BE00B32
:1013F00093EC0AF0BFEC0AF0076E8A8608B002D0C0
:10140000F09601D0F08607501200000E0001F06F38
:10141000000EEF6F11D0EF51EB25ED6FF051EC2185
:10142000EE6FEDC0F6FFEEC0F7FF0800F550B8EC28
:101430000AF00001EF4BF02BEF51EB25ED6FF0516F
:10144000EC21EE6FEDC0F6FFEEC0F7FF0800F5509F
:101450000009D8B41200DFD79CA202D09C989C88C7
:10146000AACFEBF00001EB51B8EC0AF0080E000136
:10147000EB19D8B4C9EC0AF00D0E0001EB19D8A491
:1014800012000A0EB8EC0AF0120005EC09F0A0EC0C
:101490000AF09F0E0001EB6F0F0EEC6F05EC0AF0E7
:1014A000A4AAFED7A40E0001EB6F0F0EEC6F05ECA3
:1014B0000AF02CEC0AF0F4D7036E000EF0B6010E21
:1014C000056EF0968A96035093EC0AF0BFEC0AF092
:1014D000046E8A8605B002D0F09601D0F0860450E2
:1014E0001200046E000EF0B6010E056EF0968A969C
:1014F000045093EC0AF0035093EC0AF08A8605B08E
:1015000002D0F09601D0F08612000001EB6F71B4AA
:10151000FED7000E4D6E000E4C6EEBC04FF0EAC0D1
:101520004EF071801200026E9E96C9CF01F0C69EE9
:1015300002C0C9FFC6BEFBD79EA6FED79E9612006C
:10154000949C95847E96000E7D6E330EAB6E240EB9
:10155000A86E900E9C6E1200A4AE1200A49ED4EC55
:1015600007F0000E0E6E050E0D6EBFEC08F01200B7
:101570000001EA6FA8A2FED7EAC0A9FF1200000E80
:1015800093EC0AF0C9501200011122334455661140
:05159000FF041200FF42
:08FFF800ACF5DDFFFFF9FFF19C
:00000001FF
