:0400000009EF01F013
:100008005D82FACF18F0FBCF19F0E9CF1AF0EACFEA
:100018001BF0E1CF1CF0E2CF1DF0D9CF1EF0DACFF4
:100028001FF0F3CF20F0F4CF21F0F6CF22F0F7CF76
:1000380023F0F8CF24F0F5CF25F05DC026F05EC0A0
:1000480027F05FC028F060C029F0F0B6F0A0ABD070
:10005800F090620E3DEC26F02B6E2BA011D0439051
:1000680043BC439C000E0101326F000E316F43A266
:1000780007D0480E3DEC26F02A6E2AB043844392FE
:100088002BA68AD02D68000E2E6E010E2E6401D08C
:1000980010D02E50500D200EF324D96E020EF420ED
:1000A800DA6EDF50D8A403D02EC02DF002D02E2A4D
:1000B800ECD7020E2D606BD0040E036E730E52EC5B
:1000C80026F02D50500D200EF324D96E020EF42088
:1000D800DA6E030E046E000E036E24EC25F0020F98
:1000E800DF6E2D50500D200EF324D96E020EF42031
:1000F800DA6E4F0EDF6040D0438A010E2E6E1AD0A2
:100108002D50500D200E136E020E146EF350132650
:10011800F45014222E501324D96E000E1420DA6ED7
:10012800000E2E24036E046A030E042224EC25F02C
:10013800DF6E2E2A2E50136E146A2D50500D200E8D
:10014800F324D96E020EF420DA6EDF50156E166AAB
:10015800020E1526000E16221350155C1650800A42
:10016800176E1450800A1758D8B0CAD7010E036EFC
:100178001B0E52EC26F005D0010E036E1B0E52EC3E
:1001880026F0000E036E730E52EC26F005D0010E19
:10019800036E1B0E52EC26F02BA805D0800E036EC2
:1001A800590E52EC26F09EB09DA007D09E904B2A87
:1001B8004B50D8A402D001013A2BC4EC26F029C038
:1001C80060F028C05FF027C05EF026C05DF025C053
:1001D800F5FF24C0F8FF23C0F7FF22C0F6FF21C0B7
:1001E800F4FF20C0F3FF1FC0DAFF1EC0D9FF1DC0F7
:1001F800E2FF1CC0E1FF1BC0EAFF1AC0E9FF19C0FB
:0E020800FBFF18C0FAFF5D921100ABEF23F070
:100F000000C0030000A005000060090000E0100020
:100F100000E01F0000E03D0000E0790000E0F1008B
:100F200000E0E10100E0C10300E0810700E0010F03
:100F300000E0011E00443D1B000DB4150001000837
:100F400000400000020010008001000A006400E878
:100F5000031027010010000001001030313233343B
:100F60003536373839414243444546003031323313
:100F7000343536373839616263646566005258200B
:100F80004D657373616765733A2025336400545867
:100F9000204D657373616765733A2025336400548F
:050FA000657374000000
:100FA60049EC11F00009D8B463EF10F041B4120017
:100FB600000E0101006F2FA404D00001B06BB02B0E
:100FC60002D00001B06B010100510001B019FC0B09
:100FD600B0190101006F2FA602D0008702D00101CF
:100FE60000972F50030BE806D8A404D00001B06B7D
:100FF600B02B02D00001B06BB03BB04701010051ED
:101006000001B019DF0BB0190101006F2FAE02D03D
:10101600008D02D00101009D2FAE0AD037B002D05C
:10102600009F02D00101008F30C003F131C004F1EE
:1010360038C001F139C002F136C009F135C008F1F6
:10104600419454EF10F00A0E346002D060EF10F0B5
:1010560020EE02F03250D9263350DA22DF5000015A
:10106600CD6F20EE03F03250D9263350DA22DF500E
:10107600CE6F20EE04F03250D9263350DA22DF50FC
:10108600D06F20EE05F03250D9263350DA22DF50E9
:10109600D16F20EE06F03250D9263350DA22DF50D7
:1010A600D26F20EE07F03250D9263350DA22DF50C5
:1010B600D36F20EE08F03250D9263350DA22DF50B3
:1010C600D56F20EE09F03250D9263350DA22DF50A0
:1010D600D66F000E0101006F2FA602D0008702D046
:1010E600010100970051030B0009D8A406D00001A6
:1010F600D02902E1D129D8A4FDD056500001D51936
:101106000CE15750D619D8A408D05450D21905E18D
:101116005550D319D8B460EF10F032C0D9FF33C0A0
:10112600DAFF010EDF643FD032C0D9FF33C0DAFFE9
:10113600DF06000E476E000ED86F14D0D851010D91
:10114600F3503224D96EF4503320DA6E4750010D35
:10115600960EF324E16E010EF420E26EDFCFE7FF78
:10116600472AD82B3450D85DD8A0E8D72FC03AF0FC
:1011760054C03FF055C040F037C03EF0140ECBECE3
:1011860021F020EE3AF000EE7EF0060EDBCFEBFF0C
:10119600E806FCE2960E0001856F010E866F47C0D9
:1011A60087F0A2EC18F0000E0001D86F030ED86588
:1011B60001D036D0D851080D030EF326000EF422C6
:1011C600000EF324D96E020EF420DA6EDF50D8B486
:1011D60025D0D851080D000EF324D96E020EF42046
:1011E600DA6ED551DE181AE1D651DE18D8A416D01B
:1011F60020EE0AF03250D9263350DA22D851080DA3
:10120600020EF326000EF422000EF324E16E020E07
:10121600F420E26EDE50E618D8B402D0D82BC6D73A
:10122600040ED86102D060EF10F0000ED86F030EE6
:10123600D86501D011D0D851080D030EF326000E43
:10124600F422000EF324D96E020EF420DA6EDF507B
:10125600D8B402D0D82BEBD7040ED86145D0D851DC
:10126600080D000EF324D96E020EF420DA6ED5C0F6
:10127600DEFFD6C0DDFF20EE0AF03250D92633500D
:10128600DA22D851080D020EF326000EF422000EC3
:10129600F324E16E020EF420E26EDFCFE7FFD851B1
:1012A600080D030EF326000EF422000EF324D96E69
:1012B600020EF420DA6E030EDF6EA0EC24F00001BD
:1012C600D851080D040EF326000EF422000EF32466
:1012D600D96E020EF420DA6E60C0DEFF61C0DEFF5A
:1012E60062C0DEFF63C0DEFF01010051FC0B010995
:1012F600006F6FD054500001CD1903E15550CE193F
:10130600D8A47AD25650D01903E15750D119D8A48F
:1013160073D220EE01F03250D9263350DA22DFA400
:1013260058D05CC096F1020E0101976FD2C098F1B9
:10133600D3C099F1D5C09AF1D6C09BF154C09CF1A7
:1013460055C09DF156C09EF157C09FF120EE0AF0A0
:101356003250D9263350DA22DF50A06F000EA16F2B
:10136600300EA26F0D0E476E57500001D619D8B435
:101376000DD0D2C0A4F0D3C0A5F0D5C0A6F0D6C07B
:10138600A7F0000EA86F8AEC14F021D0000E3A6E7A
:101396003A8A010E3D6E010E3E6ED50E3B6E000E74
:1013A6003C6ED2C03FF0D3C040F020EE3AF000EEE3
:1013B6007EF0060EDBCFEBFFE806FCE2960E0001A0
:1013C600856F010E866F47C087F0A2EC18F0010109
:1013D600008520EE0BF03250D9263350DA22DF504A
:1013E600D8A4D0D120EE0CF03250D9263350DA22D0
:1013F600300EDE18D8A49DD1ABD10101C9B340D0BF
:10140600A0EC24F060C0DFF161C0E0F162C0E1F160
:1014160063C0E2F120EE08F03250D9263350DA22CA
:10142600DF500101CB6F20EE09F03250D926335040
:10143600DA22DF50CC6F000E0001D76F070ED7659A
:1014460001D019D0D751B06FB16B0D0EB027000E79
:10145600B123B0513224D96EB1513320DA6ED7514F
:10146600010DCD0EF324E16E010EF420E26EDFCF06
:10147600E7FFD72BE3D70101C983C99160EF10F0CD
:1014860020EE08F03250D9263350DA22CB51DE183E
:10149600D8A40BD020EE09F03250D9263350DA22E8
:1014A600CC51DE18D8B460EF10F0CB51CC11D8A4D3
:1014B6005BD0000E0001D76F070ED76501D02BD089
:1014C600D751B06FB16B0D0EB027000EB123B051DE
:1014D6003224D96EB1513320DA6ED751010DD70EB1
:1014E600F324E16E010EF420E26EDFCFE7FFD75161
:1014F600010DD70EF324D96E010EF420DA6ED75102
:10150600010D1A0EF324E16E010EF420E26EDFCF18
:10151600E7FFD72BD1D720EE08F03250D92633502B
:10152600DA22DF500101D56F20EE09F03250D926BC
:101536003350DA22DF50D66FD5C158F0D6C159F0F4
:1015460054C0E3F155C0E4F12CEC23F00101CA6F5D
:10155600CA29D8A483D08D0E486E58BE489002EC96
:1015660020F00101CA6F7AD00B0E476E4750010D6D
:10157600960EF324D96E010EF420DA6E000EDF6E9D
:10158600472A4750010D960EF324D96E010EF4201A
:10159600DA6E110EDF6E472A000E0001D76F070EB6
:1015A600D76501D02CD0D751B06FB16B0D0EB027D7
:1015B600000EB123B0513224D96EB1513320DA6E08
:1015C600D751010DD70EF324E16E010EF420E26E21
:1015D600DFCFE7FFD751010DD70EF324D96E010EE9
:1015E600F420DA6E4750010D960EF324E16E010EDB
:1015F600F420E26EDFCFE7FF472AD72BD0D720EEC5
:1016060008F03250D9263350DA22DF500101D56F67
:1016160020EE09F03250D9263350DA22DF50D66F49
:101626004750010D960EF324D96E010EF420DA6EA2
:10163600D5C1DFFF472A4750010D960EF324D96E18
:10164600010EF420DA6ED6C1DFFF472ACB0E000169
:10165600AE6F010EAF6FE8EC22F00101C983C981BC
:1016660060EF10F0000E0001CC6F070ECC6501D0C4
:1016760019D0CC51B06FB16B0D0EB027000EB1234F
:10168600B0513224D96EB1513320DA6ECC51010DEE
:101696001A0EF324E16E010EF420E26EDFCFE7FFAF
:1016A600CC2BE3D78D0E486E20EE15F03250D9269E
:1016B6003350DA22DFBE489020EE15F03250D9269C
:1016C6003350DA22DF50586E20EE16F03250D9260B
:1016D6003350DA22DF50596E54C0E3F155C0E4F1BD
:1016E6002CEC23F00101CA6FCA29D8B411D0CA5113
:1016F6000D0D0C0EF326000EF4223B0EF324D96ECC
:10170600010EF420DA6EDF50486E4884488604D015
:101716008D0E486E58BE489002EC20F00101CA6F4B
:10172600CA29D8B402D0C98101D0C991C99360EF42
:1017360010F020EE0CF03250D9263350DA22DF506A
:10174600100AD8B45AD6010AD8B48CD760EF10F074
:1017560020EE0AF03250D9263350DA220101F75131
:10176600DE18D8A460EF10F033510001D51905E159
:10177600010134510001D619D8A460EF10F041964A
:1017860060EF10F03450F50F0101076F0B0E322495
:10179600056F000E3320066FD2C001F1D3C002F1EF
:1017A60020EE08F03250D9263350DA22DE28D8A4AB
:1017B60014D020EE09F03250D9263350DA22DE2832
:1017C600D8A40BD037B002D0009F02D00101008F01
:1017D60030C003F131C004F107D0008F080E322467
:1017E600036F000E3320046F008D0751D8B460EFED
:1017F60010F0418460EF10F032C0D9FF33C0DAFF39
:10180600DF50D8B460EF10F032C0D9FF33C0DAFF32
:10181600DF06000E476E000E0001D86F14D0D851B7
:10182600010DF3503224D96EF4503320DA6E47504E
:10183600010D960EF324E16E010EF420E26EDFCF69
:10184600E7FF472AD82B3450D85DD8A0E8D75750A1
:10185600D119D8A42BD00101A151D8A427D0300E7C
:10186600A219D8A423D0000E3A6E3A8A010E3D6E14
:10187600010E3E6ED00E3B6E000E3C6ECDC03FF0AC
:10188600CEC040F020EE3AF000EE7EF0060EDBCF42
:10189600EBFFE806FCE2960E0001856F010E866FEF
:1018A60047C087F0A2EC18F060EF10F0CDC0A4F0AE
:1018B600CEC0A5F0D0C0A6F0D1C0A7F0000E2FB6BE
:1018C600010E0001A86F8AEC14F0F7D3000E000198
:1018D600CA6FCA51B06FB16B040EB027000EB123A8
:1018E600B0513224D96EB1513320DA6E4D0EDE1866
:1018F600D8A4E3D320EE01F03050D9263150DA22B5
:10190600DF50C56FC5C0B0F0010EB16FB02B02D06D
:10191600D890B137B02FFCD70001B151BE6F30C09F
:10192600D9FF31C0DAFFDF50D8A403D0BE51010180
:1019360037130001CA51B06FB16B060EB027000E07
:10194600B123B0513224D96EB1513320DA6EC5516C
:10195600010D120EF324E16E010EF420E26EDFCFCC
:10196600E7FF41A0AAD338C0E3F139C0E4F130C0A3
:10197600D9FF31C0DAFFDF50586E20EE01F030504B
:10198600D9263150DA22DF50596ECA51010DF35073
:101996003224D96EF4503320DA6EDE28D8A48DD3E3
:1019A600CA51B06FB16B010EB027000EB123B05112
:1019B6003224D96EB1513320DA6EDF50CB6F0A0E66
:1019C60049607BD3CB39030BB06F020EB06175D380
:1019D60049500E0D000EF324D96E030EF420DA6E74
:1019E6005AC0DFFF49500E0D0B0EF326000EF422EF
:1019F600000EF324D96E030EF420DA6E08C1DFFF61
:101A060049500E0D0C0EF326000EF422000EF324A0
:101A1600D96E030EF420DA6E09C1DFFF49500E0DB0
:101A2600090EF326000EF422000EF324D96E030EDF
:101A3600F420DA6EE3C1DEFFE4C1DDFF49500E0D8E
:101A46000D0EF326000EF422000EF324D96E030EBB
:101A5600F420DA6E000EDF6E49500E0D0D0EF326E1
:101A6600000EF422000EF324D96E030EF420DA6E73
:101A76000301DF8C0001CB31030BB06F49500E0D13
:101A86000D0EF326000EF422000EF324D96E030E7B
:101A9600F420DA6E0301DF500001B019FC0BB01917
:101AA6000301DF6E0001CBA70ED049500E0D0D0EBF
:101AB600F326000EF422000EF324D96E030EF42052
:101AC600DA6E0301DF860001CB39030BB06F020E1D
:101AD600B0610ED049500E0D0D0EF326000EF42205
:101AE600000EF324D96E030EF420DA6E0301DF8AAA
:101AF60003C1D9FF04C1DAFF49500E0D010EF326CA
:101B0600000EF422000EF324E16E030EF420E26EC2
:101B1600DFCFE7FF010120EE01F00351D926045182
:101B2600DA2249500E0D020EF326000EF422000EA4
:101B3600F324E16E030EF420E26EDFCFE7FF495097
:101B46000E0D0D0EF326000EF422000EF324D96EB0
:101B5600030EF420DA6E0301DF8E492AAED2000EA0
:101B66000001C06F010E4A6401D0A7D2000ED86FE3
:101B7600070ED86501D014D0D851010DF35030248A
:101B8600D96EF4503120DA6ED851010D1A0EF324B5
:101B9600E16E010EF420E26EDFCFE7FFD82BE8D727
:101BA600D0EC20F00001D46FD429D8A417D04A5025
:101BB600D8A483D2B70E486E54C0E3F155C0E4F101
:101BC60002EC20F00001D46FD429D8A428D0010E4D
:101BD600C06FFF0E596EFE0E586E8BD0D4510D0D90
:101BE6000C0EF326000EF4223B0EF324D96E010EE2
:101BF600F420DA6E0101DFA612D00001D4510D0DDA
:101C0600020EF326000EF4223B0EF324D96E010ECB
:101C1600F420DA6EDECF58F0DDCF59F06AD000013D
:101C2600D429D8B466D0D429586E57C059F054C0B8
:101C3600E3F155C0E4F1020E4418D8A43CD020EEDE
:101C460001F03250D9263350DA22DFAC34D058C0F6
:101C5600BCF059C0BDF0000E586E010ECF6F070ED6
:101C6600CF6501D01FD0CFC059F02CEC23F0000176
:101C7600BF6FBF29D8A413D0000E586ECFC059F03D
:101C8600CFC0B0F0010EB16FB02B02D0D890B137F3
:101C9600B02FFCD70001B1510101371303D0000169
:101CA600CF2BDDD7080E0001CF19D8A404D0BCC0B5
:101CB60058F0BDC059F0BF0E486E20EE01F032500C
:101CC600D9263350DA22DFB002D04890588E02EC83
:101CD60020F00001D46FD4510D0D0C0EF326000E2A
:101CE600F4223B0EF324D96E010EF420DA6E0101C4
:101CF600DF88020E0101966F58C097F159C098F11E
:101D0600C0C099F1040E476E540E00019D6F000E7F
:101D16009E6FD4510D0D040EF326000EF4223B0ED9
:101D2600F3249F6F010EF420A06F010EA16F000E29
:101D3600A26F80EC21F0C1D120EE03F03250D926FB
:101D46003350DA22DF50D8A47CD020EE01F0325096
:101D5600D9263350DA22DF50566E20EE02F032508A
:101D6600D9263350DA22DF50576E5650D8A420D0E9
:101D7600010E446E44C0B0F00001B0470101395174
:101D86000001B019F90BB0190101396F57C0B0F055
:101D9600070E0001B017010EB16FB02B02D0D8901C
:101DA600B137B02FFCD70001B129010137130ED08E
:101DB600000E446E44C0B0F00001B0470101395135
:101DC6000001B019F90BB0190101396F560E000167
:101DD600656F000E666F540E676F000E686FE6EC57
:101DE60023F04182BF0E486E000E0001D86F070E29
:101DF600D86501D014D0D851010DF3503024D96ED6
:101E0600F4503120DA6ED851010D1A0EF324E16E2A
:101E1600010EF420E26EDFCFE7FFD82BE8D756504D
:101E2600D8A403D0000E596E02D057C059F0000E48
:101E3600586E54C0E3F155C0E4F102EC20F0466E52
:101E46003CD146685468556858685968580E000170
:101E5600656F000E666F540E676F000E686FE6ECD6
:101E660023F02BD13750D8B416D030C0D9FF31C0AB
:101E7600DAFFDF50586E20EE01F03050D92631508F
:101E8600DA22DF50596E2CEC23F00001C86FC82906
:101E9600D8B413D11ED0000E0001D86F070ED86536
:101EA60001D014D0D851010DF3503024D96EF4501E
:101EB6003120DA6ED851010D1A0EF324E16E010EAF
:101EC600F420E26EDFCFE7FFD82BE8D7D0EC20F086
:101ED600DCD7C8510D0D0C0EF326000EF4223B0E76
:101EE600F324D96E010EF420DA6E0101DFAAE5D0E3
:101EF60046500001C819D8B40FD0C8510D0D0C0EAC
:101F0600F326000EF4223B0EF324D96E010EF420C4
:101F1600DA6E000EDF6ED1D0000ED86F060ED865D1
:101F260001D083D0D8510D0D0C0EF326000EF422ED
:101F36003B0EF324D96E010EF420DA6E0101DFAEFA
:101F460063D00001D8510D0D0C0EF326000EF422BD
:101F56003B0EF324D96E010EF420DA6E0101DFAADE
:101F660053D046500001D819D8B44ED0000E476E53
:101F76004750010D960EF324D96E010EF420DA6E49
:101F8600030EDF6E472A000E3A6E3A8A3A50FC0B71
:101F960001093A6E010E3D6E010E3E6ED8510D0DD1
:101FA6003B0EF324D96E010EF420DA6EDECF3FF03D
:101FB600DDCF40F0D8510D0D020EF326000EF422AF
:101FC6003B0EF3243B6E010EF4203C6E20EE3AF0FD
:101FD60000EE7EF0060EDBCFEBFFE806FCE2960E87
:101FE600856F010E866F47C087F0A2EC18F0000ED1
:101FF6000001C76F000EC66FC6290F0EC759D8B0AD
:1020060003D0C64BC72BF8D70001D8510D0D0C0EC7
:10201600F326000EF4223B0EF324D96E010EF420B3
:10202600DA6E000EDF6ED82B79D746685668576889
:1020360054685568560E656F000E666F540E676FCE
:10204600000E686FE6EC23F0419237D0020E4A6428
:1020560001D033D041A231D020EE01F03250D92642
:102066003350DA225A50DE18D8A427D04450D8B4B8
:1020760024D0140ECBEC21F071EC20F01ED032C02F
:10208600D9FF33C0DAFFDF50010AD8B468D5030A96
:10209600D8B452D6010AD8B4E5D6040AD8B4D6D7ED
:1020A6000CD02F50030B000AD8B426EF08F0010A13
:1020B600D8B4E5D7020AD8B409D441A490EC26F0E6
:1020C600A0EC24F060C0C1F061C0C2F062C0C3F0F1
:1020D60063C0C4F0000E0001D86F030ED86501D0AE
:1020E60052D0D851080D030EF326000EF422000E2E
:1020F600F324D96E020EF420DA6EDF50D8B441D044
:10210600D851080D040EF326000EF422000EF32417
:10211600D96E020EF420DA6EDECFB0F0DECFB1F06B
:10212600DECFB2F0DECFB3F0B01FB11FB21FB31FC8
:10213600B02B000EB123B223B323C151B025B46F27
:10214600C251B121B56FC351B221B66FC451B3218B
:10215600B76FB75108E1210EB45DA10EB559070E50
:10216600B659D8A00ED0D851080D030EF326000E8E
:10217600F422000EF324D96E020EF420DA6E000E5D
:10218600DF6ED82BAAD70101C9A31200C9A153D06B
:102196000B0E476E4750010D960EF324D96E010EB5
:1021A600F420DA6E000EDF6E472A4750010D960EB8
:1021B600F324D96E010EF420DA6E110EDF6E472A73
:1021C600000E0001C96F070EC96501D015D0C951AF
:1021D600010DCD0EF324D96E010EF420DA6E4750B0
:1021E600010D960EF324E16E010EF420E26EDFCFB0
:1021F600E7FF472AC92BE7D74750010D960EF32470
:10220600D96E010EF420DA6ECBC1DFFF472A4750A4
:10221600010D960EF324D96E010EF420DA6ECCC1B0
:10222600DFFF472AD50EAE6F010EAF6FE8EC22F046
:102236000101C9931200DFC1B0F0E0C1B1F0E1C104
:10224600B2F0E2C1B3F00001B01FB11FB21FB31F5D
:10225600B02B000EB123B223B323C151B025B86F02
:10226600C251B121B96FC351B221BA6FC451B32162
:10227600BB6FBB5108E1610EB85DE30EB959160E8E
:10228600BA59D8A012000101C993120081A2F080A8
:1022960043A00FD00101325104E1800E315DD8A078
:1022A60006D0000E326F000E316F439002D0314BD4
:1022B600322B5B68000E0001676F010E676501D067
:1022C60010D06751500D200EF324D96E020EF42063
:1022D600DA6EDF50D8B403D067C05BF002D0672B4C
:1022E600ECD7020E5B6011D3010E686F5B50500D88
:1022F600010EF326000EF422200EF324D96E020EF0
:10230600F420DA6E0201DFBC03D0000E0001686F14
:10231600000E2F6E000E376E5B50500D020EF32628
:10232600000EF422200EF324D96E020EF420DA6E8B
:10233600DF50CC0B0001666F4DD25B50500D060E80
:10234600F326000EF422200EF324D96E020EF4209A
:10235600DA6EDE28D8A40FD05B50500D070EF32698
:10236600000EF422200EF324D96E020EF420DA6E4B
:10237600DE28D8B42F842F8E6851D8B429D05B506C
:10238600500D040EF326000EF422200EF324D96E0F
:10239600020EF420DA6EDF50386E5B50500D050EDB
:1023A600F326000EF422200EF324D96E020EF4203A
:1023B600DA6EDF50396E5B50500D080EF326000EB4
:1023C600F422200EF324306E020EF420316E90D1EA
:1023D6005B50500D080EF326000EF422200EF32457
:1023E600D96E020EF420DA6EDF50386E5B50500D57
:1023F600090EF326000EF422200EF324D96E020EE7
:10240600F420DA6EDF50396E5B50500D0A0E9ED105
:102416005B50500D200EF324D96E020EF420DA6EB6
:10242600DF50EB0F346E5B50500D120EC5D12F8E60
:102436006851D8B437D05B50500D040EF326000E09
:10244600F422200EF324D96E020EF420DA6EDF5049
:10245600386E5B50500D050EF326000EF422200E4A
:10246600F324D96E020EF420DA6EDF50396E5B501B
:10247600500D0E0EF326000EF422200EF324306EBD
:10248600020EF420316E5B50500D200EF324D96EEF
:10249600020EF420DA6EDF50E70F346E5B50500DFB
:1024A600160E8AD15B50500D0E0EF326000EF42246
:1024B600200EF324D96E020EF420DA6EDF50386E49
:1024C6005B50500D0F0EF326000EF422200EF3245F
:1024D600D96E020EF420DA6EDF50396E5B50500D65
:1024E600100EF326000EF422200EF324306E020E98
:1024F600F420316E5B50500D200EF324D96E020E7F
:10250600F420DA6EDF50E50F346E5B50500D180E76
:1025160053D12F842F8E010E376E5B50500D040E53
:10252600F326000EF422200EF324D96E020EF420B8
:10253600DA6EDF50386E5B50500D050EF326000E36
:10254600F422200EF324D96E020EF420DA6EDF5048
:10255600396E5B50500D060EF326000EF422200E47
:10256600F324306E020EF420316E5B50500D200EB7
:10257600F324D96E020EF420DA6EDF50F50F18D16F
:102586005B50500D060EF326000EF422200EF324A7
:10259600D96E020EF420DA6EDE28D8A40FD05B5076
:1025A600500D070EF326000EF422200EF324D96EEA
:1025B600020EF420DA6EDE28D8B42F842F8E010E98
:1025C600376E6851D8A437D05B50500D080EF326ED
:1025D600000EF422200EF324D96E020EF420DA6ED9
:1025E600DF50386E5B50500D090EF326000EF422B4
:1025F600200EF324D96E020EF420DA6EDF50396E07
:102606005B50500D0A0EF326000EF422200EF32422
:10261600306E020EF420316E5B50500D200EF32406
:10262600D96E020EF420DA6EDF50F10F346E5B5075
:10263600500D0C0EC1D05B50500D040EF326000E4B
:10264600F422200EF324D96E020EF420DA6EDF5047
:10265600386E5B50500D050EF326000EF422200E48
:10266600F324D96E020EF420DA6EDF50396E5B5019
:10267600500D080EF326000EF422200EF324306EC1
:10268600020EF420316E5B50500D200EF324D96EED
:10269600020EF420DA6EDF50F30F346E5B50500DED
:1026A6000A0E8AD02F8E010E376E6851D8B42FD0FD
:1026B6005B50500D040EF326000EF422200EF32478
:1026C600D96E020EF420DA6EDF50386E5B50500D74
:1026D600050EF326000EF422200EF324D96E020E08
:1026E600F420DA6EDF50396E5B50500D0D0E66D653
:1026F6005B50500D200EF324D96E020EF420DA6ED4
:10270600DF50ED0F346E5B50500D100E55D05B5000
:10271600500D0D0EF326000EF422200EF324D96E72
:10272600020EF420DA6EDF50386E5B50500D0E0E3E
:10273600F326000EF422200EF324D96E020EF420A6
:10274600DA6EDF50396E5B50500D0F0EF326000E19
:10275600F422200EF324306E020EF420316E58D689
:102766005B50500D060EF326000EF422200EF324C5
:10277600D96E020EF420DA6EDE28D8A40FD05B5094
:10278600500D070EF326000EF422200EF324D96E08
:10279600020EF420DA6EDE28D8B42F845B50500D7A
:1027A600200EF324D96E020EF420DA6EDF50F60FF7
:1027B600346E5B50500D080EF326000EF422200EE8
:1027C600F324326E020EF420336E19D090EC26F00C
:1027D600000E120000016651080AD8B4C1D7880A53
:1027E600D8B497D6080AD8B4CBD6040AD8B45AD7E0
:1027F600440AD8B4A2D5040AD8B419D6E7D75B5090
:10280600500D010EF326000EF422200EF324D96E8D
:10281600020EF420DA6E0201DFA613D090EC26F049
:10282600000E1200FC0E2F162CD02F50FC0B0109A7
:102836002F6E27D0030E2F1224D090EC26F0000E18
:1028460012005B50500D010EF326000EF422200EEE
:10285600F324D96E020EF420DA6EDF50070B000166
:10286600606F616B6151000AD8A4E7D76051000A16
:10287600D8B4E0D7010AD8B4D5D7020AD8B4D5D788
:10288600DCD7FF0E0001606FFF0E616F5B50500DCD
:10289600200EF324D96E020EF420DA6EDF50626F3A
:1028A600636B6051622761516323200E646F020ED1
:1028B600656F62516427635165235B50500DF35079
:1028C6006425D96EF4506521DA6EDF50366E5B50A2
:1028D600500D200EF324D96E020EF420DA6EDF506E
:1028E600606F5B50500D200E616F020E626FF350E9
:1028F6006127F450622360516125D96E000E622172
:10290600DA6EDF50356E010E1200000E1200000165
:10291600A751070BAC6FAC515718D8A430D0800E16
:10292600A66502D0000E1200000E3A6E3A8AA8B1D1
:1029360002D03A9601D03A86A6C058F0A7C059F000
:10294600010E3D6E010E3E6E580E3B6E000E3C6E45
:1029560054C03FF055C040F020EE3AF000EE7EF055
:10296600060EDBCFEBFFE806FCE2960E0001856F54
:10297600010E866F47C087F0A2EC18F01200ACC0BB
:10298600A9F0010E0001AA6FA92B02D0D890AA3790
:10299600A92FFCD70001AA51010137150009D8B4A7
:1029A6007AD00001AC51010D0A0EF324D96E010E46
:1029B600F420DA6E020EDF6428D0AC51010D0A0E47
:1029C600F324D96E010EF420DA6E000EDF6EACC071
:1029D600A9F0010EAA6FA92B02D0D890AA37A92F69
:1029E600FCD70001AA51FF0A010137170001AC51BB
:1029F600010D120EF324D96E010EF420DA6E000ECC
:102A0600DF6E71EC20F0000E1200000E3A6E3A8A6C
:102A16000001A8B102D03A9601D03A86000E586E4F
:102A2600ACC059F0010E3D6E010E3E6E580E3B6E67
:102A3600000E3C6E54C03FF055C040F020EE3AF018
:102A460000EE7EF0060EDBCFEBFFE806FCE2960E0C
:102A56000001856F010E866F47C087F0A2EC18F063
:102A66000009D8A40BD00001AC51010D0A0EF324C5
:102A7600D96E010EF420DA6EDF2AC5D70001AC51FB
:102A8600010D0A0EF324D96E010EF420DA6E000E43
:102A9600DF6E010E1200000E0001AD6F070EAD6570
:102AA60001D0C5D0AD51010D120EF324D96E010E21
:102AB600F420DA6EDF50A96FACC0AAF0010EAB6F3E
:102AC600AA2B02D0D890AB37AA2FFCD70001AB5166
:102AD600A9150009D8B4A8D0AD51010D0A0EF324EA
:102AE600D96E010EF420DA6E020EDF6456D0AD51B7
:102AF600010D0A0EF324D96E010EF420DA6E000ED3
:102B0600DF6EADC0A9F0010EAA6FA92B02D0D89036
:102B1600AA37A92FFCD70001AA51FF0A01013717CE
:102B26000001AD51010D120EF324D96E010EF420F1
:102B3600DA6E000EDF6E4450D8B403D071EC20F08C
:102B46002AD0000E476E4750010D960EF324D96E1B
:102B5600010EF420DA6E070EDF6E472A4750010D8C
:102B6600960EF324D96E010EF420DA6E5AC0DFFFFA
:102B7600472A0101E369E469E30E00019D6F010E36
:102B86009E6F000E9F6F000EA06F010EA16F000ECC
:102B9600A26F80EC21F0000E1200000E3A6E3A8A07
:102BA6000001A8B102D03A9601D03A86000E586EBE
:102BB600ADC059F0010E3D6E010E3E6E580E3B6ED5
:102BC600000E3C6E54C03FF055C040F020EE3AF087
:102BD60000EE7EF0060EDBCFEBFFE806FCE2960E7B
:102BE6000001856F010E866F47C087F0A2EC18F0D2
:102BF6000009D8A40CD00001AD51010D0A0EF32432
:102C0600D96E010EF420DA6EDF2A000E12000001E2
:102C1600AD51010D0A0EF324D96E010EF420DA6EC1
:102C2600000EDF6E010E12000001AD2B37D7020E2B
:102C36004418D8B460D0000E3A6E3A8AA8B102D0D1
:102C46003A9601D03A864404D8B427D0000E000143
:102C5600AD6F070EAD6501D01AD001013751D8B45A
:102C660013D0ADC0A9F0010E0001AA6F000EAB6F24
:102C7600A92B03D0D890AA37AB37A92FFBD70001D1
:102C8600AA51AB11D8A403D00001AD2BE2D7080E90
:102C9600AD6103D0ADC059F002D0000E596E000EE2
:102CA600586E010E3D6E010E3E6E580E3B6E000EC6
:102CB6003C6E54C03FF055C040F020EE3AF000EEB6
:102CC6007EF0060EDBCFEBFFE806FCE2960E000177
:102CD600856F010E866F47C087F0A2EC18F00009D9
:102CE600D8A404D001010A2B000E1200000E010127
:102CF6000A6F010E1200000E3A6E3A8A0001A8B160
:102D060002D03A9601D03A86ACC059F0000E586E01
:102D1600010E3D6E010E3E6E580E3B6E000E3C6E71
:102D260054C03FF055C040F020EE3AF000EE7EF081
:102D3600060EDBCFEBFFE806FCE2960E0001856F80
:102D4600010E866F47C087F0A2EC18F00009D8A4E0
:102D560004D001010A2B000E1200000E01010A6FB9
:102D6600010E120001013851D8B40AD0A151D8B4CD
:102D760007D0418645C0F7F1060E0001F56F04D075
:102D8600020E0001F56F4196DB51D8B43CD1000E1E
:102D9600F66F070EF66501D014D0F651010DF3500B
:102DA600D925D96EF450DA21DA6EF651010D1A0ED4
:102DB600F324E16E010EF420E26EDFCFE7FFF62B7F
:102DC600E8D7D0EC20F00001F76FF729D8A43DD062
:102DD6005CC096F1020E0101976F986999699A692C
:102DE6009B6954C09CF155C09DF156C09EF157C0D9
:102DF6009FF145C0A0F1452A000E3A6E3A8A0001BD
:102E0600DCB102D03A9601D03A86D9C03BF0DAC09E
:102E16003CF0000E3D6E010E3E6E54C03FF055C0B4
:102E260040F0419620EE3AF000EE7EF0060EDBCF43
:102E3600EBFFE806FCE2960E0001856F010E866F39
:102E460047C087F0A2EC18F012000001F7510D0DF3
:102E56000C0EF326000EF4223B0EF324D96E010E5F
:102E6600F420DA6E0101DFA6B3D73851D8B411D0F9
:102E76000001F7510D0D020EF326000EF4223B0E53
:102E8600F324D96E010EF420DA6EDECF33F1DDCFF6
:102E960034F1040E0101966FF5C097F10001F75168
:102EA6000D0D3B0EF324D96E010EF420DA6EDF50C1
:102EB6000101986F0001F7510D0D010EF326000E6A
:102EC600F4223B0EF324D96E010EF420DA6EDF50A5
:102ED6000101996F0001F7510D0D020EF326000E48
:102EE600F4223B0EF324D96E010EF420DA6EDF5085
:102EF60001019A6F0001F7510D0D030EF326000E26
:102F0600F4223B0EF324D96E010EF420DA6EDF5064
:102F160001019B6F54C09CF155C09DF156C09EF1B6
:102F260057C09FF145C0A0F1452A0001F7510D0D8C
:102F36003B0EF324D96E010EF420DA6EDECFA4F038
:102F4600DDCFA5F0F7510D0D020EF326000EF4228B
:102F56003B0EF324D96E010EF420DA6EDECFA6F016
:102F6600DDCFA7F0DCC0A8F08AEC14F00009D8A4E5
:102F760002D04196120041A61200A0EC24F060C0D7
:102F8600E5F061C0E6F062C0E7F063C0E8F0DBECB4
:102F960026F00009D8A4F9EC26F041A61200A0EC10
:102FA60024F060C0E9F061C0EAF062C0EBF063C0F3
:102FB600ECF0E5C0DDF0E6C0DEF0E7C0DFF0E8C02B
:102FC600E0F00001DD1FDE1FDF1FE01FDD2B000E1E
:102FD600DE23DF23E023E951DD25E16FEA51DE211F
:102FE600E26FEB51DF21E36FEC51E021E46FE45136
:102FF60008E1210EE15DA10EE259070EE359D8A0C2
:10300600C6D741961200040E0101966FF5C097F1DE
:1030160054C098F155C099F1D9C0D9FFDAC0DAFF8A
:10302600DF509A6F000120EE01F0D951D926DA510E
:10303600DA22DF5001019B6F54C09CF155C09DF10F
:1030460056C09EF157C09FF145C0A0F1452AD9C090
:10305600D9FFDAC0DAFFDF50336F000120EE01F04E
:10306600D951D926DA51DA22DF500101346FD9C09D
:10307600D9FFDAC0DAFFDF50586E000120EE01F00A
:10308600D951D926DA51DA22DF50596E54C0A4F04C
:1030960055C0A5F058C0A6F059C0A7F0DCC0A8F0EE
:1030A6008AEC14F00009D8A402D04196120041A679
:1030B6001200A0EC24F060C0EDF061C0EEF062C03A
:1030C600EFF063C0F0F0DBEC26F00009D8A4F9ECD1
:1030D60026F041A61200A0EC24F060C0F1F061C019
:1030E600F2F062C0F3F063C0F4F0EDC0DDF0EEC0C4
:1030F600DEF0EFC0DFF0F0C0E0F00001DD1FDE1F04
:10310600DF1FE01FDD2B000EDE23DF23E023F1515E
:10311600DD25E16FF251DE21E26FF351DF21E36F2E
:10312600F451E021E46FE45108E1210EE15DA10EC6
:10313600E259070EE359D8A0C6D741961200000EF1
:1031460000019C6F000E9B6F7EA502D0010E816F61
:103156007EA702D0000E826F7E51030BE806D8A42C
:1031660002D0030E06D07E51030B0009D8A402D06C
:10317600010E996F525083190EE153508419D8A449
:103186000AD0522803E15328D8B405D0050E9A6F09
:10319600998D010E03D0070E9A6F000E986F81511C
:1031A600D8B402D0020E01D0080E9A278251D8B4A4
:1031B60002D0020E01D0080E9A277EBB7EB501D042
:1031C600998B7E51030B030AD8A409D0000E996F80
:1031D600070E9A6F000E986F010E826F7E9B9CC041
:1031E60062F0636B9AC064F073EC24F000019C2BD0
:1031F6009CC062F0636B9A518725646F73EC24F070
:1032060000019C2B9CC062F0636B99C064F073EC68
:1032160024F000019C2B7E51030B030AD8A413D083
:103226009CC062F0636B800E646F73EC24F0000147
:103236009C2B9CC062F0636B36C164F073EC24F087
:103246000101362B80D08151D8B40BD08251D8B42D
:1032560008D09CC062F0636B880E646F73EC24F038
:1032660023D08151D8B40BD08251D8A408D09CC0A9
:1032760062F0636BC80E646F73EC24F015D0815155
:10328600D8A40BD08205D8A408D09CC062F0636B8A
:103296008C0E646F73EC24F007D09CC062F0636BF5
:1032A600CC0E646F73EC24F000019C2B9CC062F082
:1032B600636B36C164F073EC24F00101362B000118
:1032C6009C2B9CC062F0636B83C064F073EC24F0AB
:1032D60000019C2B9CC062F0636B84C064F073ECAD
:1032E60024F000019C2B7EA511D09CC062F0636B7C
:1032F600FF0E646F73EC24F000019C2B9CC062F0FF
:10330600636BFF0E646F73EC24F01DD08151D8B44B
:103316001DD09CC062F0636B7FC0D9FF80C0DAFF0E
:10332600DF50646F73EC24F000019C2B9CC062F0AC
:10333600636B20EE01F07F51D9268051DA22DF50EF
:10334600646F73EC24F000019C2B19D0000E9B6F68
:10335600070E9B6501D013D09CC062F0636B9B5136
:10336600010DF3507F25D96EF4508021DA6EDF50BF
:10337600646F73EC24F000019C2B9B2BE9D79851CA
:10338600D8A412D09CC062F0636B52C064F073EC98
:1033960024F000019C2B9CC062F0636B53C064F068
:1033A60073EC24F000019C2B8251D8B413D09CC03E
:1033B60062F0636B50C064F073EC24F000019C2B48
:1033C6009CC062F0636B51C064F073EC24F00001A2
:1033D6009C2B1BD0000E9B6F070E9B6501D015D052
:1033E6009CC062F0636B9B51010DF35001012F25C8
:1033F600D96EF4503021DA6EDF500001646F73EC41
:1034060024F000019C2B9B2BE7D7000E9B6F12D05C
:103416009CC062F0636B9B51010DF3508525D96EFC
:10342600F4508621DA6EDF50646F73EC24F00001ED
:103436009C2B9B2B87519B5DD8A0EAD743807EBBF4
:103446007EB504D0050E9B6F438203D0010E9B6FA1
:1034560043929BC062F0370E0EEC26F0A0EC24F0EF
:1034660060C090F061C091F062C092F063C093F0CA
:1034760081A2F08043B005D043A444D04394000E0B
:103486001200A0EC24F060C094F061C095F062C018
:1034960096F063C097F090C088F091C089F092C012
:1034A6008AF093C08BF00001881F891F8A1F8B1F2B
:1034B600882B000E89238A238B23945188258C6FB1
:1034C600955189218D6F96518A218E6F97518B2147
:1034D6008F6F8F518E1106E1210E8C5D4E0E8D5928
:1034E600D8A0C6D73DEC1CF0500E0001656F000E4B
:1034F600666F520E676F000E686FE6EC23F043901E
:10350600000E1200010E12000101F66F030E0101FA
:10351600F56F0001F905D8A40DD06AEC1DF006D0B0
:10352600DBEC26F00009D8A4F9EC26F00101C9A3CA
:103536001200F6D70001F951D8A412000101F629AC
:10354600D8B405D025D00101F52F01D012005AC0FC
:10355600E5F1010EE66FE76BE86BE96BE52B05D04D
:10356600D890E637E737E837E937E52FF9D7E6C1E8
:10357600D9F0E7C1DAF0E8C1DBF0E9C1DCF00A0E08
:1035860093EC1EF00009D8B4DED7000E0101F66FE9
:10359600F6510E0D090EF326000EF422000EF3244A
:1035A600D96E030EF420DA6EDECFE3F1DDCFE4F15F
:1035B600F6510E0D010EF326000EF422000EF32432
:1035C600D96E030EF420DA6EDF50586EF6510E0DEA
:1035D600020EF326000EF422000EF324D96E030E1B
:1035E600F420DA6EDF50596E2CEC23F0466E462836
:1035F600D8A406D0BCEC25F0466E4628D8B41200F6
:1036060046500D0D0C0EF326000EF4223B0EF3244D
:10361600D96E010EF420DA6E000EDF6E0101F6514E
:103626000E0D090EF326000EF422000EF324D96EB9
:10363600030EF420DA6E46500D0D3B0EF324E16EB8
:10364600010EF420E26EDECFE6FFDDCFE5FFF65198
:103656000E0D010EF326000EF422000EF324D96E91
:10366600030EF420DA6E46500D0D020EF326000E00
:10367600F4223B0EF324E16E010EF420E26EDFCF5E
:10368600E7FFF6510E0D020EF326000EF422000E91
:10369600F324D96E030EF420DA6E46500D0D030E98
:1036A600F326000EF4223B0EF324E16E010EF42005
:1036B600E26EDFCFE7FF46500D0D0C0EF326000E2F
:1036C600F4223B0EF324D96E010EF420DA6EDF8667
:1036D60046500D0D0C0EF326000EF4223B0EF3247D
:1036E600D96E010EF420DA6EDF8246500D0D0C0EF7
:1036F600F326000EF4223B0EF324D96E010EF420BD
:10370600DA6EDF8A46500D0D0C0EF326000EF422FB
:103716003B0EF324D96E010EF420DA6EDF80F651EB
:103726000E0D000EF324D96E030EF420DA6EDF5070
:1037360074EC26F046500D0D3B0EF324D96E010EA7
:10374600F420DA6EDECF54F0DDCF55F058685968B4
:10375600580E0001656F000E666F540E676F000EFF
:10376600686FE6EC23F0000E476E4750010D960E8B
:10377600F324D96E010EF420DA6E010EDF6E472AAD
:103786004750010D960EF324D96E010EF420DA6E21
:1037960039C1DFFF472A46500D0D3B0EF3240001C9
:1037A6009D6F010EF4209E6F46500D0D020EF326FE
:1037B600000EF4223B0EF3249F6F010EF420A06F3F
:1037C600010EA16F080EA26F80EC21F0A0EC24F090
:1037D60060C0EDF161C0EEF162C0EFF163C0F0F1DF
:1037E60038D0DBEC26F00009D8A4F9EC26F0A0ECE2
:1037F60024F060C0F1F161C0F2F162C0F3F163C080
:10380600F4F1EDC1E5F1EEC1E6F1EFC1E7F1F0C18A
:10381600E8F10101E51FE61FE71FE81FE52B000E93
:10382600E623E723E823F151E525E96FF251E62186
:10383600EA6FF351E721EB6FF451E821EC6FEC519D
:1038460018E1210EE95DA10EEA59070EEB59D8B031
:10385600120046500D0D0C0EF326000EF4223B0E00
:10386600F324D96E010EF420DA6E0101DFB81200DE
:10387600B8D712008C9E030E0001736F000E746F92
:10388600000E756F000E766F1BD09A0E6B6F020ED0
:103896006C6F000E6D6F000E6E6F6B07000E6C5B2B
:1038A6006D5B6E5B6B29F9E16C29F7E16D29F5E13A
:1038B6006E29D8A4F2D77307000E745B755B765B2E
:1038C6007351741175117611D8A4DFD78C8E0A0E38
:1038D600776F000E786F000E796F000E7A6F1BD02F
:1038E6009A0E6F6F020E706F000E716F000E726F80
:1038F6006F07000E705B715B725B6F29F9E17029CF
:10390600F7E17129F5E17229D8A4F2D77707000EFD
:10391600785B795B7A5B7751781179117A11D8A443
:10392600DFD7070E626F550E0EEC26F0540EF5EC3F
:1039360025F000017D6F7DC06AF0070E6A17D8A4D6
:10394600F5D7000E7C6F000E7B6FE80E7B5D030ED5
:103956007C59D8B003D07B4B7C2BF7D7010E626F16
:103966001B0E0EEC26F0FF0E0001626F070E0EEC2A
:1039760026F0FF0E0001626F090E0EEC26F0FF0E18
:103986000001626F030E0EEC26F0FF0E0001626F5F
:10399600050E0EEC26F0000E00017D6F070E7D650C
:1039A60001D015D07D51010DF35001012F25D96E9F
:1039B600F4503021DA6EDF500001626F7D51020D46
:1039C600F3500B0F0EEC26F000017D2BE7D7020E0D
:1039D600636F020E626F800E646F73EC24F0020E4A
:1039E6000001636F030E626F000E646F73EC24F0C8
:1039F600020E0001636F060E626F900E646F73EC29
:103A060024F0020E0001636F070E626F800E646F72
:103A160073EC24F0020E0001636F080E626F100E45
:103A2600646F73EC24F0020E0001636F200E626F68
:103A3600210E646F73EC24F0800E0001626F750E28
:103A46000EEC26F0400E0001626F7D0E0EEC26F0A5
:103A5600600E0001626F7F0E0EEC26F0980E0001DC
:103A6600626F310E0EEC26F0950E0001626F5D0E50
:103A76000EEC26F0020E0001636F0F0E626F46EC2D
:103A860024F000017D6F7D51A00BA00AD8A4F2D7C7
:103A9600E60E626F650E0EEC26F0020E0001636FF5
:103AA600000E626F030E646F73EC24F0020E0001C9
:103AB600636F010E626F020E646F73EC24F0000EEA
:103AC6000001686F0101355174EC25F01200010107
:103AD600C991020E4418D8A4D4D0C9B32ED0A0ECF4
:103AE60024F060C0DFF161C0E0F162C0E1F163C0C3
:103AF600E2F1000E0101CC6F000ECB6F000E00014B
:103B0600F86F070EF86501D014D0F851010DF80EC4
:103B1600F324D96E010EF420DA6EF851010DCD0EA4
:103B2600F324E16E010EF420E26EDFCFE7FFF82BFF
:103B3600E8D70101C983C9911200CB51CC11D8B481
:103B460012005650CB1904E15750CC19D8B41200C4
:103B56000B0E476E4750010D960EF324D96E010EDB
:103B6600F420DA6E000EDF6E472A4750010D960EDE
:103B7600F324D96E010EF420DA6E110EDF6E472A99
:103B8600000E0001F86F070EF86501D015D0F85148
:103B9600010DF80EF324D96E010EF420DA6E4750AB
:103BA600010D960EF324E16E010EF420E26EDFCFD6
:103BB600E7FF472AF82BE7D74750010D960EF32467
:103BC600D96E010EF420DA6E56C0DFFF472A475041
:103BD600010D960EF324D96E010EF420DA6E57C04D
:103BE600DFFF472A000EF86F070EF86501D014D0E4
:103BF600F851010DCD0EF324D96E010EF420DA6EC4
:103C0600F851010D1A0EF324E16E010EF420E26E56
:103C1600DFCFE7FFF82BE8D7CBC158F0CCC159F07E
:103C26002CEC23F00101CA6FCA29D8B40FD0CA51AF
:103C36000D0D0C0EF326000EF4223B0EF324D96E66
:103C4600010EF420DA6EDF50486E04D08C0E486EFA
:103C560058AE488054C0E3F155C0E4F102EC20F0C0
:103C66000101CA6FCB0E0001D96F010EDA6F000E8B
:103C7600DB6F000EDC6FB5EC16F00101C993C9814C
:103C86001200A0EC24F060C0DFF161C0E0F162C078
:103C9600E1F163C0E2F1000E596E000E586E0B0E94
:103CA600476E4750010D960EF324D96E010EF4208F
:103CB600DA6E000EDF6E472A4750010D960EF3248A
:103CC600D96E010EF420DA6E100EDF6E472A000E52
:103CD6000001F86F070EF86501D015D0F851010DF7
:103CE600F80EF324D96E010EF420DA6E4750010D5A
:103CF600960EF324E16E010EF420E26EDFCFE7FFAD
:103D0600472AF82BE7D7580ED96F000EDA6F000E48
:103D1600DB6F000EDC6FB5EC16F00101C9831200F3
:103D26000001F66F010E0001EA6F000EEB6F000E48
:103D3600EC6F000EED6F5AC0F7F0000EF86F090E2B
:103D4600F86501D00CD0F8510E0D000EF324D96E93
:103D5600030EF420DA6EFF0EDF6EF82BF0D7000E9E
:103D6600496E4180000EF86FADD0F8C0DDF0EAC0B4
:103D7600DEF0EBC0DFF0ECC0E0F0EDC0E1F0DD2BF3
:103D860005D0D890DE37DF37E037E137DD2FF9D7BA
:103D9600D951DE15E26FDA51DF15E36FDB51E0151D
:103DA600E46FDC51E115E56F000EE215E66FF80EE3
:103DB600E315E76FFF0EE415E86F070EE515E96FEB
:103DC600E651E711E811E911D8B47BD0F85174EC4B
:103DD60026F0000E476E4750010D960EF324D96E5D
:103DE600010EF420DA6E070EDF6E472A4750010DEA
:103DF600960EF324D96E010EF420DA6E5AC0DFFF58
:103E0600472A0101E369E469E30E00019D6F010E93
:103E16009E6F000E9F6F000EA06F010EA16F000E29
:103E2600A26F80EC21F0A0EC24F060C0EEF061C03F
:103E3600EFF062C0F0F063C0F1F0DBEC26F00009B1
:103E4600D8A4F9EC26F0A0EC24F060C0F2F061C032
:103E5600F3F062C0F4F063C0F5F0EEC0DDF0EFC041
:103E6600DEF0F0C0DFF0F1C0E0F00001DD1FDE1F84
:103E7600DF1FE01FDD2B000EDE23DF23E023F251E0
:103E8600DD25E16FF351DE21E26FF451DF21E36FAF
:103E9600F551E021E46FF651040D010EF324F66EA0
:103EA6000F0EF420F76EE1510900F55CE2510900AE
:103EB600F558E3510900F558E4510900F558D8B012
:103EC600BCD7F82B1F0EF86550D7F75174EC26F0C7
:103ED6004190495012000001836F56685768660E7C
:103EE600556E660E546E000E0001876F060E8765CE
:103EF60001D010D087510D0D0C0EF326000EF422C2
:103F06003B0EF324D96E010EF420DA6E000EDF6E3E
:103F1600872BECD7000E876F070E876501D016D06A
:103F26008751010D120EF324D96E010EF420DA6EBC
:103F3600000EDF6E8751010D0A0EF324D96E010EB5
:103F4600F420DA6E000EDF6E872BE6D7000E010135
:103F5600376F000E446E000E426E000E416E000E6C
:103F6600C96F000E396FD0EC26F0000E476E000EBA
:103F76000001846F8451870B4009846F848383B169
:103F860002D0849502D000018485F80E856F010E5B
:103F9600866F84C07EF085C07FF086C080F09AEC84
:103FA60025F0560E0001656F000E666F540E676FA2
:103FB600000E686FE6EC23F05A5074EC26F001010F
:103FC60039814AC082F00001823B0101395100016A
:103FD6008219CF0B82190101396F398D44C082F0E5
:103FE600000182470101395100018219F90B82193A
:103FF6000101396FD6CF45F0F090F086120000012E
:10400600696948A403D0D0EC20F004D048A604D0B7
:104016002CEC23F00001696F6929D8A404D0BCEC0C
:1040260025F00001696F6929D8B456D069510D0D84
:104036000C0EF326000EF4223B0EF324D96E010E6D
:10404600F420DA6E48C0DFFF48A428D0000E686F5F
:10405600070E686501D022D06851010D1A0EF324AF
:10406600D96E010EF420DA6E6851010D040EF326A6
:10407600000EF4223B0E666F010E676FF350662743
:10408600F450672369510D0DF3506625E16EF45027
:104096006721E26EDFCFE7FF682BDAD748A610D09C
:1040A60069510D0D020EF326000EF4223B0EF32489
:1040B600D96E010EF420DA6E58C0DEFF59C0DDFF5E
:1040C60069510D0D3B0EF324D96E010EF420DA6E04
:1040D600E3C1DEFFE4C1DDFF69511200000E476E49
:1040E6004750010D960EF324D96E010EF420DA6EB8
:1040F600FF0EDF6E472A4750010D960EF324D96E48
:10410600010EF420DA6E39C1DFFF472A4750010D50
:10411600960EF324D96E010EF420DA6E000EDF6ED1
:10412600472A4750010D960EF324D96E010EF4204E
:10413600DA6E000EDF6E472A4750010D960EF32405
:10414600D96E010EF420DA6E4D0EDF6E472A475007
:10415600010D960EF324D96E010EF420DA6E410E8F
:10416600DF6E472A4750010D960EF324D96E010ED5
:10417600F420DA6E37C1DFFF472A540E00019D6F27
:10418600000E9E6F000E9F6F000EA06F030EA16FB4
:10419600040EA26F80EC21F01200000E0001656F84
:1041A600060E656501D04FD065510D0D0C0EF32638
:1041B600000EF4223B0EF324D96E010EF420DA6EC3
:1041C6000101DFAE3DD0000165510D0D0C0EF32649
:1041D600000EF4223B0EF324D96E010EF420DA6EA3
:1041E6000101DFA42DD0000E0001646F070E646587
:1041F60001D024D06451010D1A0EF324D96E010E9C
:10420600F420DA6E6451010D040EF326000EF4223A
:104216003B0E616F010E626FF3506127F45062230B
:1042260065510D0DF3506125E16EF4506221E26E89
:10423600DE50E618D8A404D0642BD8D765511200F6
:104246000001652BADD7FF0E12004F504D5CD8A074
:1042560004D04E504C5CD8B0120071B0FED74F500F
:104266004D5CD8B01AD04D50010D220EF324D96EF4
:10427600010EF420DA6EDF50756E4D2A4F504D1840
:10428600D8A412004E50D8A412007184010E0E6EEE
:104296002C0E0D6E5EEC22F012004E504C5CD8B027
:1042A60012004C50010DC00EF324D96E020EF420FC
:1042B600DA6EDF50D8A40AD04C50010DC00EF3249C
:1042C600D96E020EF420DA6E200EDF6E4C50010D10
:1042D600C00EF324D96E020EF420DA6EDF50756E2E
:1042E6004C2A4E504C18D8A412007184010E0E6E42
:1042F6002C0E0D6E5EEC22F01200000E3A6E3A5055
:104306000001A119FC0BA1193A6E9F51A011D8B456
:104316003A843AB403D0A36BA32B02D00001A36B5B
:10432600A33BA3473A50A319DF0BA3193A6E3A8E63
:104336009FC03BF0A0C03CF0A2A702D0010E01D066
:10434600000E3D6EA2A502D0010E01D0000E3E6EFB
:104356009DC0D9FF9EC0DAFFDF503F6E20EE01F010
:104366009D51D9269E51DA22DF50406E20EE3AF05A
:1043760000EE7EF0060EDBCFEBFFE806FCE2960EC3
:10438600856F010E866F47C087F0A2EC18F0120009
:1043960000017A6F7AC060F0D65026EC26F0000154
:1043A6007B6F3CD07B07A0EC24F060C072F061C04C
:1043B60073F062C074F063C075F0A0EC24F060C0C6
:1043C60076F061C077F062C078F063C079F072C0B1
:1043D6006AF073C06BF074C06CF075C06DF00001CC
:1043E6006A1F6B1F6C1F6D1F6A2B000E6B236C23DD
:1043F6006D2376516A256E6F77516B216F6F7851F9
:104406006C21706F79516D21716F7151701106E1D8
:10441600F50E6E5D010E6F59D8A0CFD77B51D8B47B
:104426001200C0D7000E00016E6F000E6F6F000EF7
:10443600706F000E716F6CC060F06DC061F0626BE2
:10444600636BA00E646F0F0E656F000E666F000E35
:10445600676FCDEC24F060C06EF061C06FF062C093
:1044660070F063C071F0560E00016E27FF0E6F23C9
:10447600FF0E7023FF0E712371BF12007151701170
:104486006F110FE1C40E6E5DD8A012000AD000F0C5
:10449600D90E00016E27FF0E6F23FF0E7023FF0E4D
:1044A600712371BF1200715170116F11F0E16E0529
:1044B600D8A01200ECD7000E0F6E000E106E000E84
:1044C600116E000E126E0DC001F00EC002F0036AEE
:1044D600046AA00E056E0F0E066E000E076E000E25
:1044E600086EF9EC24F001C00FF002C010F003C012
:1044F60011F004C012F0560E0F26FF0E1022FF0E0A
:104506001122FF0E122212BE1200125011101010AC
:104516000EE1C40E0F5CD8A0120009D000F0D90E2F
:104526000F26FF0E1022FF0E1122FF0E122212BEC0
:104536001200125011101010F1E10F04D8A0120051
:10454600EDD7780ED36EC0909B8C000EF26E550E92
:10455600A76EAA0EA76E0E01FF91040EE76F130E4B
:10456600F66F050ED76F550EA76EAA0EA76EFF81C2
:104576000F0148693F0E496FF19E926893689468EF
:1045860095689668000E896E000E8A6E000E8C6E17
:10459600000E8D6E938093849294929693968A865B
:1045A600959E8C8E9382938A949E9398C00EC76E26
:1045B600210EC66E95968C86F19A94948B84F28E13
:1045C600F090F0866DEC23F01200040E0101966F58
:1045D600020E976F54C098F155C099F1AEC0D9FF3D
:1045E600AFC0DAFFDF509A6F000120EE01F0AE5146
:1045F600D926AF51DA22DF5001019B6F54C09CF1DE
:1046060055C09DF156C09EF157C09FF145C0A0F11F
:10461600452AAEC0D9FFAFC0DAFFDF50586E0001A1
:1046260020EE01F0AE51D926AF51DA22DF50596E95
:1046360054C0A4F055C0A5F058C0A6F059C0A7F0C4
:10464600000EA86F8AEC14F00009D8A41200419657
:104656001200000E0001626F060E626501D038D0AE
:1046660062510D0D0C0EF326000EF4223B0EF324C0
:10467600D96E010EF420DA6E0101DFAE26D00001FC
:1046860062510D0D0C0EF326000EF4223B0EF324A0
:10469600D96E010EF420DA6E0101DFA616D00001F4
:1046A60062510D0D020EF326000EF4223B0EF3248A
:1046B600D96E010EF420DA6E5850DE1806E1595014
:1046C600DE18D8A402D0625112000001622BC4D7B2
:1046D600FF0E1200530E9512A49E000E736EF00E7E
:1046E600746E280E726E000E716EA38EF28EF28CB0
:1046F600010E00016D6F2C0E6C6F15EC22F07C0E16
:104706000101226F810E236F000E246F000E00013F
:10471600606F030E66EC26F0000E00016D6FC80E8A
:104726006C6F15EC22F07C0E0101226F510E236F87
:10473600080E246F000E0001606F030E66EC26F073
:10474600000E00016D6FC80E6C6F15EC22F01200A2
:10475600E80EF66E4D0EF76E000EF86E01EEF7F0EF
:1047660010EE09F00900F5CFEEFFE550E150FAE151
:10477600FA0EF66E4D0EF76E000EF86E0900F5CFC6
:104786005BF00900F5CF5CF003EE00F08C0EEE6AEC
:10479600E806FDE102EE00F0E10EEE6AE806FDE154
:1047A60001EE00F0E50EEE6AE806FDE100EE2FF000
:1047B6002C0EEE6AE806FDE15D905D92000EF86E45
:1047C600000118EF24F065C0D9FF66C0DAFFDF509C
:1047D600506E000120EE01F06551D9266651DA22AD
:1047E600DF50516E67C0D9FF68C0DAFFDF50526EE6
:1047F60020EE01F06751D9266851DA22DF50536E58
:1048060050C062F0070E0EEC26F051C062F0090EA1
:104816000EEC26F052C062F0030E0EEC26F053C0EA
:1048260062F0050E0EEC26F01200A4EC22F0B8ECB5
:1048360026F0000E6EEC1FF00B0E74EC26F0FF0E49
:104846000001D96FFF0EDA6F000EDB6F000EDC6F12
:104856000A0E93EC1EF00001FA6F010EF96FFF0EBF
:1048660087EC1AF09F0E0001616F0F0E626F4DEC20
:1048760025F0DAEC25F00009D8B4FBD79EEC26F03B
:10488600DAEC25F0F6D7000EF0B6010E0001676FE0
:10489600F0968A9662C064F063C065F0D89065337E
:1048A6006433D89065336433D89065336433645188
:1048B6007F0B800982EC26F000016239E846E00BA6
:1048C600E00B82EC26F0EAEC26F00001666F8A86A1
:1048D60067B102D0F09601D0F08600016651120051
:1048E600000EF0B6010E0001676FF0968A9662C060
:1048F60065F063C066F0D89066336533D89066334A
:104906006533D8906633653365517F0B800982EC39
:1049160026F000016239E846E00BE00B100982EC54
:1049260026F00001645182EC26F08A86000167B108
:1049360002D0F09601D0F08612009D90000E000184
:10494600686F000E696F000E656FCECF66F0CFCF31
:1049560067F0662909E16729D8A406D0652B6505A5
:10496600646F020E6465F1D79EA004D0682B4B28B5
:10497600D8B4692B4B50682701013A5100016927C9
:104986009D8066C060F067C061F068C062F069C073
:1049960063F01200000E0001686F000E696F000ED2
:1049A6006A6F000E6B6F60A108D06451682765516D
:1049B600692366516A2367516B23D890643765373C
:1049C60066376737D890633362336133603360513B
:1049D600611162116311D8A4E6D768C060F069C09E
:1049E60061F06AC062F06BC063F01200000E096EDF
:1049F600000E0A6E000E0B6E000E0C6E01A008D0A3
:104A06000550092606500A2207500B2208500C2290
:104A1600D8900536063607360836D8900432033263
:104A2600023201320150021003100410D8A4E6D756
:104A360009C001F00AC002F00BC003F00CC004F07C
:104A46001200000EF0B6010E086EF0968A9603C0AC
:104A560005F004C006F0D89006320532D89006322A
:104A66000532D8900632053205507F0B8009ABEC33
:104A760026F00338E846E00BE00BABEC26F0EFEC53
:104A860026F0076E8A8608B002D0F09601D0F0862E
:104A960007501200000E0001666F000E656F11D000
:104AA60065516125636F66516221646F63C0F6FFCD
:104AB60064C0F7FF0800F550E3EC26F00001654BF3
:104AC600662B65516125636F66516221646F63C011
:104AD600F6FF64C0F7FF0800F5500009D8B41200CD
:104AE600DFD70001696F0A0E0001696503D01A0E4F
:104AF600696502D0000E120069C035F1020E636FBF
:104B0600000E626F6939F00B500F0309646F73EC86
:104B160024F0040E0001626F6D0E0EEC26F0000EFE
:104B26000001626F6D0E0EEC26F0010E12007EC0C3
:104B36002EF17FC02FF180C030F1D6CF36F10B0EAB
:104B46000101356F3DEC1CF0000E436E000E0001B6
:104B5600816F010E816501D012008151500D200E2A
:104B6600F324D96E020EF420DA6E000EDF6E812B6E
:104B7600F0D7000E0001606F060E606501D015D0FB
:104B860060510D0D0C0EF326000EF4223B0EF3249D
:104B9600D96E010EF420DA6E0101DFBE03D00001EA
:104BA600605112000001602BE7D7FF0E12009CA295
:104BB60002D09C989C88AACF61F000016151E3EC79
:104BC60026F0080E00016119D8B4FEEC26F00D0E91
:104BD60000016119D8A403D00A0EE3EC26F0000107
:104BE600615112000001626F000EF0B6010E000165
:104BF600646FF0968A96625182EC26F0EAEC26F013
:104C06000001636F8A8664B102D0F09601D0F08607
:104C16000001635112000001636F000EF0B6010E31
:104C26000001646FF0968A96635182EC26F00001CB
:104C3600625182EC26F08A86000164B102D0F096B9
:104C460001D0F08612000001616F080E0001626F4C
:104C5600000E636FD89061356335636FD890613706
:104C66006051635DD8A002D06051635F622FF2D7B6
:104C760063511200036E000EF0B6010E056EF0963B
:104C86008A960350ABEC26F0EFEC26F0046E8A868B
:104C960005B002D0F09601D0F08604501200046EE2
:104CA600000EF0B6010E056EF0968A960450ABEC37
:104CB60026F00350ABEC26F08A8605B002D0F096BB
:104CC60001D0F08612000001616F71B4FED7000EAC
:104CD6004D6E000E4C6E61C04FF060C04EF071809C
:104CE600120000016A6F000E0001686F6A5174ECD1
:104CF60025F00009D8B412006AC05AF0120000016B
:104D0600616F9E96C9CF60F0C69E61C0C9FFC6BEE0
:104D1600FBD79EA6FED79E961200020E5B6012007F
:104D26005B50500D200EF324D96E020EF420DA6E7D
:104D3600000EDF6E12001B0EE3EC26F05B0EE3ECBA
:104D460026F0320EE3EC26F04A0EE3EC26F01200D3
:104D5600026E9E96C9CF01F0C69E02C0C9FFC6BEAE
:104D6600FBD79EA6FED79E961200949C95847E96AF
:104D7600000E7D6E330EAB6E240EA86E900E9C6EEA
:104D86001200A4AE1200A49E28EC21F0000E0E6EB6
:104D9600050E0D6E5EEC22F01200380ECD6E9E9062
:104DA6009D80CD80000E4B6E000E01013A6F120001
:104DB600D3EC07F041A402D0010E1200000E12003F
:104DC6000001606FA8A2FED760C0A9FF1200000E06
:104DD60082EC26F0C9501200000EABEC26F0C9504A
:0B4DE6001200FF01112233445566113A
:0C4DF200419490EC26F01200FF04120027
:08FFF800ACF5DDFFFFF9FFF19C
:00000001FF
